:02000002B0004C
:1040000000400B00F8D80B00000006000C00050271
:084010000401A60F00000000EE
:04401800C8C00B0011
:1040200009480A49884208B505D0094A824202D0A7
:10403000121A06F07AF80748074A0021121A06F009
:104040009CF8014808BD00BF98DE0320E0D20B00B9
:1040500088E4032088E40320EDE7032070B5074ED1
:10406000074C03F031FDA41BA4080025AC4200D18D
:1040700070BD56F8043B98470135F7E78CD20B002A
:10408000B0D20B0000F030B808B500F0BDF8BDE8C4
:10409000084003F0D1BC02F021BC02F01FBC02F0CA
:1040A00025BC000008B5034A03490C2002F07AFB46
:1040B000FEE700BFE5630B00DCC00B000078B0FA40
:1040C00080F0400970470123037070470EB403B5B8
:1040D00003AB002153F8042B019302F0BEFE02B0A3
:1040E0005DF804EB03B0704708B503F0DBFB4FF459
:1040F000165103F0CBFB3C2202211E4802F028F8A7
:104100001C4801F0B5FF4FF4FA6002F027FC03F001
:1041100005FE02F0B7FC1848762100F0E8FF1748CA
:1041200002F0F3F808B303F0BDFB1549FFF7CEFF2B
:104130001449154801F0A0F80021132003F034FDC4
:1041400001210B2003F030FD0121072003F02CFD9D
:1041500000210F2003F028FD0021102003F024FD92
:1041600002F048F9094B186008BD03F09BFB0849B1
:10417000DCE700BF38E50320B4E403207CE603203D
:10418000F1C00B00F8E403208CE503206CE503206C
:10419000FFC00B00F8B5174801F0C7FA40BB03F0A9
:1041A00081FB1549134E154F02F01CFE114801F01A
:1041B00028FA0446B8B103F075FB2146054630469F
:1041C00001F038F801462846FFF780FF03F06AFB4C
:1041D0003946FFF77BFF304601F03AF841F288306C
:1041E00002F0BCFBE2E703F05DFB0549FFF76EFF61
:1041F000F8BD00BF8CE503200DC10B0024C10B00EE
:104200004DC10B00000000002DE9F04F2DED028B99
:1042100000218DB0102003F063FDBD4CBD4B94ED2B
:10422000007ADFF860A3186007EE900AF8EE677A6C
:10423000B94D77EE877AC4ED007A02F0DBF8DAF850
:104240000030C01A47F22F5398426DD9D4ED006A5E
:104250009FEDB27ADFF83083C6EE877AC8ED007A38
:1042600017EE900A05F0BEF89FED9F1B41EC100B76
:1042700003F0CEFE98ED008A18EE100A57EC106B92
:1042800005F0B0F89AA3D3E900238046894630466A
:10429000394605F0FFF8424606460F464B46404673
:1042A000494605F0F7F894A3D3E9002305F0F2F8A6
:1042B00002460B463046394604F034FFDFED987A6B
:1042C00068EE277A064617EE900A0F4605F08AF840
:1042D00002460B463046394604F026FF88A3D3E950
:1042E000002304F021FF05F0CDFB07EE900AB7EEA6
:1042F000007AF4EEC77A8B4BF1EE10FAC8BFC5ED29
:10430000007A186003F0CEFA0646286805F06AF8CD
:1043100002460B4630468449FFF7D8FE002323604F
:1043200002F068F8CAF80000804802F01DF8804BDF
:104330001B68834240F0B68003F0B4FA7D49FFF772
:10434000C5FE7D487D4FDFF84482DFF84492DFF8F8
:1043500044A27B4E01F030FE7748022101F03FFC81
:104360007548012101F031FC7348012101F032FC54
:1043700000221146704801F025FC724800F014FD3F
:10438000F2EE027A20EE270AB1EE047AC0EE077A46
:104390006C489FED6D7A77EE877AC7ED007A00F072
:1043A0007DFDDFED6A7AC0EE277A17EE900A05F000
:1043B00019F855A3D3E9002305F06CF805F062FB6A
:1043C000C8F800005F4800F01FFD584889ED000A5A
:1043D00001F0B0FF0446CAF80000286805F002F8B2
:1043E000CDE90A01252308930994D9F80000584C17
:1043F00004F0F8FFCDE90601D8F8000004F0F2FF60
:10440000F7230293CDE90401386804F0EBFFCDE90E
:104410000001504932684848FFF758FE464801F00D
:1044200027FEFFF7B7FE01F0E5FF2368C01A41F24F
:104430008833984214D903F035FA4749FFF746FE0E
:104440004648012100F0ADFF38B903F02BFA44498A
:10445000FFF73CFE414800F0FBFE01F0CBFF20607F
:10446000DFF8F8B03F4D42F21071584600F01FFFE0
:10447000002800F09180A842F5D1681D05F03EFEAD
:1044800051EC100B05F0B6FA374B012804461860C2
:1044900021D10146072003F098FB21460B2003F0B1
:1044A00094FBE0E7314B1B68834203D103F0FAF938
:1044B0002F4944E72F4B1B68834203D103F0F2F9E5
:1044C0002D493CE72D4B1B6883427FF43AAF03F044
:1044D000E9F92B4933E70021072003F076FB00219F
:1044E000DCE700BFAFF300800000000000000840E0
:1044F0009A9999999999F13F6666666666660E4043
:10450000D7A3703D0AD7E33FB81E85EB51B89E3F55
:1045100088E503205CE5032078E60320007C9248D0
:104520000000024434E503205DC10B007CE603205B
:10453000B8CB0B007BC10B0038E50320A4E60320B9
:1045400030E50320B4E40320000000420000C8422C
:1045500080E50320CAC10B001CC20B008CE50320C0
:104560002BC20B00F8E40320B4E60320C0CB0B0001
:10457000A0C10B00BCCB0B00B0C10B00C4CB0B0027
:10458000BFC10B006CE5032074E6032060E6032046
:1045900070E50320A4E4032001F02CFF4D4B1B68C1
:1045A000C01A47F23053984261D94B4801F043F9A1
:1045B000002858D001210B2003F04AFB132003F000
:1045C00030FB014630604548454D01F076F83868CB
:1045D00004F008FF41EC100B0221424801F07CF886
:1045E000D8F8000004F0FEFE41EC100B02213E481A
:1045F00001F072F8D9F8000004F0F4FE41EC100B61
:1046000002213A4801F068F8DAF80010384801F061
:1046100054F8286804F0E6FE41EC100B02213548FE
:1046200001F05AF803F03EF90446286804F0DAFE77
:10463000CDE90801DAF800300693D9F8000004F05B
:10464000D1FECDE90401D8F8000004F0CBFECDE99D
:104650000201386804F0C6FECDE90001264932683F
:104660002046FFF733FD01F0C5FE1A4B1860234CBE
:1046700001F0C0FE2368C01A4EF66023984224D988
:104680003368B3F5C86F1DDD01210B2003F09DFADF
:104690000121072003F099FA03F004F91849FFF704
:1046A00015FD4FF47A7002F059F900210B2003F048
:1046B0008CFA0021072003F088FA03F0F3F811497F
:1046C000FFF704FD01F096FE20600DB0BDEC028BFB
:1046D000BDE8F08F84E503208CE5032098E60320F5
:1046E00034E50320A8E6032064E6032074E50320F4
:1046F000A8E4032060E503203BC20B0070E6032022
:104700008AC20B0085C20B0037B500212448254D15
:10471000254C01F03BFC254800F0A2F80F2124486D
:1047200001F0EEFD284602F0EFFF224B00932249F4
:10473000224B40F25B72204600F0F8FC204B2360D5
:104740002146204A2048C4F8D050002300F0E0FF62
:1047500021461E4A1E48002300F0AAFF21461D4A9A
:104760001D48002300F0A4FF21461C4A1C480023DA
:1047700000F09EFF21461B4A1B48002300F098FFD3
:1047800021461A4A1A48002300F092FF194A1A4893
:104790000023214603B0BDE8304000F089BF00BFD0
:1047A00038E5032088E403208CE50320B4E40320EB
:1047B0007CE60320B4C20B00A4C20B009AC20B001B
:1047C00030C60B00D5C20B00F8E40320F1C20B0089
:1047D00098E603200FC30B00A8E603202BC30B00B1
:1047E00064E6032044C30B0074E503205DC30B00A3
:1047F000A8E4032080C30B0060E50320704710B5D8
:1048000010210446FFF74BFC204610BD73B504464B
:1048100008462279A36832B1A3B90B4902B0BDE8BA
:10482000704002F0DFBA094A267B094D0949647BD2
:10483000012E18BF2946CDE900140749FFF746FCB1
:1048400002B070BD054AEFE7ACC30B002AC20B00F3
:10485000A8C30B00A4C30B00C2C30B009BC30B0077
:104860004FF0FF330361704713B50B4C2178BFF352
:104870005B8F11F001010BD120460191FFF71EFC67
:10488000019928B1054802F025FB2046FFF71BFCE3
:10489000024802B010BD00BFB8E60320BCE603200A
:1048A00008B5FFF7E1FFBDE8084002F059BB07B5C6
:1048B0000190FFF7D9FF019903B05DF804EB02F016
:1048C00069BB2DE9F04190F91330013305460F46DD
:1048D00006D1FFF7C9FF3946BDE8F04102F020BC20
:1048E000002407264FF0010895F91300002180B23B
:1048F00003F06BF995F9110008FA06F1394080B21E
:1049000003F063F995F91300012180B203F05DF91A
:1049100095F91200640080B2E4B203F06FF908B1B7
:1049200044F00104013EDFD22046BDE8F0810000E2
:104930007FB590F91030013304460E46154613D169
:104940000179006802F0D0F82068036831469B685E
:1049500098472068036829469B689847206804B0F8
:10496000BDE8704002F0CBB890F9133001330CD1A0
:10497000164B009300238DF80430154B02936846C4
:104980000123ADF80C30FFF792FF94F910000021DD
:1049900080B203F01AF906F07F012046FFF791FF7D
:1049A00029462046FFF78DFF94F91000012180B2BF
:1049B00003F00BF994F91330013304D104B0BDE8CE
:1049C0007040FFF76DBF04B070BD00BFE8C30B00BF
:1049D00020A10700F8B5DB0002F0070203F038035E
:1049E000134343EA81139DF8186080F83C3090F837
:1049F00040309DF81C509DF8207066F3471380F8F6
:104A00004030ED0090F8383007F0070705F0380522
:104A100023F03F033D4304461D4380F8385006F021
:104A20000702F221FFF784FF94F83820C2F3C20393
:104A300002F007019B0043EA411343EAD2122046E9
:104A4000F521FFF775FF94F83C20C2F3C20302F092
:104A500007019B0043EA411343EA92122046F421E6
:104A6000BDE8F840FFF764BF30B590F9103001336E
:104A700085B004460D4618D10179006802F034F87B
:104A80002068036829469B689847206802F037F839
:104A900021792068012202F024F8206803685B690C
:104AA0009847C5B2284605B030BD90F913300133A0
:104AB0000CD1154B009300238DF80430134B029357
:104AC00068460123ADF80C30FFF7F1FE94F91000B1
:104AD000002180B203F079F845F080012046FFF70D
:104AE000F0FE00212046FFF7ECFE054694F9100089
:104AF000012180B203F069F894F913300133D1D168
:104B0000FFF7CEFECEE700BFE8C30B0020A10700F1
:104B100008B5F321FFF7A8FF00F0010008BD000071
:104B200030B590F91030013385B004460D461FD1E1
:104B30000179006801F0D8FF2068036829469B6866
:104B40009847206801F0DBFF21792068022201F0FC
:104B5000C8FF206803685B699847054620680368BA
:104B60005B69984740EA052085B2284605B030BD0C
:104B700090F9133001330CD1184B009300238DF8BA
:104B80000430174B029368460123ADF80C30FFF751
:104B90008EFE94F91000002180B203F016F845F063
:104BA00080012046FFF78DFE00212046FFF789FE99
:104BB000002105462046FFF784FE40EA052085B225
:104BC00094F91000012180B202F0FFFF94F9133034
:104BD0000133CAD1FFF764FEC7E700BFE8C30B008B
:104BE00020A1070008B5FFF79BFF40BA80B208BDBF
:104BF00038B588210446FFF7F5FF8A21A0822046B8
:104C0000FFF7F0FF8C21E0822046FFF7EBFF8E21BB
:104C100020832046FFF7E6FF902160832046FFF7C0
:104C2000E1FF9221A0832046FFF7DCFF9421E0837F
:104C30002046FFF7D7FF962120842046FFF7D2FFBA
:104C4000982160842046FFF7CDFF9A21A08420465A
:104C5000FFF7C8FF9C21E0842046FFF7C3FF9E2199
:104C600020852046FFF7BEFFA12160852046FFF783
:104C7000FBFEE12184F82C002046FFF7B3FFE3217F
:104C8000E0852046FFF7F0FEE42184F8300020465E
:104C9000FFF7EAFEE52105462046FFF7E5FE00F0B6
:104CA0000F0343EA05106086E6212046FFF7DCFE8D
:104CB000E52105462046FFF7D7FEC0F3071343EA78
:104CC0000510A086E7212046FFF7CEFE84F83600C7
:104CD00038BD000030B590F91030013385B004467E
:104CE0000D4623D10179006801F0FEFE20680368BB
:104CF00029469B689847206801F001FF21792068C8
:104D0000032201F0EEFE206803685B699847050204
:104D1000206803685B699847284305022068036898
:104D20005B6998470543284605B030BD90F91330BC
:104D300001330CD11A4B009300238DF80430194B2A
:104D4000029368460123ADF80C30FFF7B0FD94F9EB
:104D50001000002180B202F038FF45F080012046AB
:104D6000FFF7AFFD00212046FFF7ABFD0021050254
:104D70002046FFF7A6FD2843050200212046FFF745
:104D8000A0FD054394F91000012180B202F01DFF3F
:104D900094F913300133C6D1FFF782FDC3E700BF9A
:104DA000E8C30B0020A1070010B5FA210446FFF765
:104DB00091FFB0F5000F1FD0A18A9FED117A4B0033
:104DC000C1EB2022C3EBE011B4F91630594302FBCA
:104DD00002F3B4F918201B1353439B1303EBE12395
:104DE000E36003EB830380331B1207EE903AF8EE87
:104DF000E77A87EE870A10BD9FED020AFBE700BF46
:104E00000000C8420000C07F38B50446FFF7CCFF61
:104E1000FD212046FFF784FEB0F5004F38D0E16851
:104E2000B4F93420A1F59635B4F932100905C1EB77
:104E3000803305FB123303F58043DA1394F83030E6
:104E400094F936106B43DB126943891203F5004372
:104E50004B439B12B4F92E1003F500134B4303F59B
:104E600000539B135343DA1394F82C105243D2117E
:104E70004A43A3EB221323EAE373B3F1C85FA8BF4D
:104E80004FF0C8531B1300EE103ABAEECB0A38BDF0
:104E90009FED010AFBE700BF0000C07F2DE9F8434A
:104EA0000546FFF781FFF7212846FFF713FFB0F50E
:104EB000000F00F0B680E968B5F91C304FEAE17EDA
:104EC000B1F5FA314EF1FF3EDC1703FB0EF201FBA8
:104ED0000422A3FB013422441203A1FB01781C032A
:104EE00001FB0EF642EA1352B5F91E3008EB4608F4
:104EF0004FEAE37C03FB08F607FB0C66A3FB073CC9
:104F000066441B0A43EA06631B1942EB26226E8B9A
:104F100002F50042A3FB063406FB0244E3176210CD
:104F200053EA64044FF0000C7ED0B5F9244004FB32
:104F300008F64FEAE47907FB0966A4FB07473E44FD
:104F4000B5F922704FEAE77807FB0EFE01FB08EE89
:104F5000A7FB01717144490441EAD73100117F0474
:104F60003F19C0F5801446EB010604F00040B5F986
:104F700020101CEB070740EA5400E407E41B06EB93
:104F8000C10640F6354160EB0606A4FB010401FBB7
:104F9000064104F0D5FEB5F92A20B5F928604FEA9C
:104FA000613C430B43EAC14302FB0CF7D41703FBFC
:104FB0000477A2FB03243C4402FB0CF703FB0477B9
:104FC000A2FB03231F44530E43EAC7131B184FEAE7
:104FD000E67206FB01F4864641EB676702FB00417F
:104FE000A6FB0E06B5F926403144C00C40EA41301C
:104FF00018184FEAE47547EBE141000A2D0140EA39
:10500000016045EA14752401201845EB212104F0C4
:1050100059FE9FED070A07EE900A27EE800ABDE8C9
:10502000F8839FED040AFAE79FED030AF7E700BF54
:105030000000803B0000C07F0000000030B5044647
:1050400090F91000421C85B019D1206801F01AFDBA
:10505000D0212046FFF708FD6028A06045D12046FA
:10506000B622E021FFF764FC4FF4967001F076FC65
:105070002046FFF74DFD054628B36420F6E70121E1
:1050800080B202F0A2FD94F91000012180B202F07A
:105090008BFD94F91300431C04D1FFF7E5FB01F0ED
:1050A00023FFD5E7012180B202F07EFD94F91100C3
:1050B000012180B202F078FD94F91200002180B243
:1050C00002F072FDC4E72046FFF792FD052300932E
:1050D0001A4603212046CDE90155FFF77BFC6420E9
:1050E00001F03CFC012005B030BD0020FBE710B50D
:1050F0000171044602F012FE20602046BDE8104017
:10510000FFF79CBF13B504460846019105F07EF8F1
:10511000C0F3072323706070A31C84B20199224658
:10512000184605F0B1F8204402B010BD30B5028138
:105130000A4A0B4DC0E90323039B43610023C0E9E6
:105140000051C0E92F33C0E93133C0E90633C0F85C
:10515000CC300384A0F8B83030BD00BF2AC20B00A9
:10516000E4C50B002DE9F74F164602681BB297699C
:105170000193012205460C46B847C7B2012F019B97
:1051800003D0002003B0BDE8F08F04F1010804F162
:10519000050A4FF000092A680193D2F818B0414679
:1051A00001222846D847C0B20128EAD118F8012BBD
:1051B00002F07F01C24501FB07994FEAC717E0D013
:1051C00012F0800F019BE6D1A8EB0404A7B2341BB8
:1051D0002A68013C4C45D2F818A03DBF06F1FF32C9
:1051E000D21B92B21FFA89F241462846D047C0B27C
:1051F000384480B2C6E700002DE9F041DFF8308086
:1052000005460C4616461F463B4696222146284632
:10521000FFF7A8FF48B12378B6EB131F05D002F0C3
:1052200041FB414601F0F1FDEEE7BDE8F08100BF32
:10523000F4C30B000231C9B209299ABF024B53F8DB
:1052400021000248704700BF00C60B0005C40B00D8
:1052500010B5E02380F822300146002380F8233087
:1052600051F8223B04465B69022298472368204696
:105270001B69BDE81040184700F1BC0230B5134669
:1052800000F1D00453F8045B8D4209D0A342F9D158
:10529000002352F8044B2CB900EB8300C0F8BC107B
:1052A000012003E00133052BF3D1002030BD2DE9AF
:1052B000F04F00F122098BB285B09622494605468F
:1052C000FFF750FF0646F0B195F82570009705F1FD
:1052D000BC0A4FF0000805F1260B5AF8044B6CB1DC
:1052E00021680191084604F091FFB84206D1019966
:1052F0003A46584604F092FF002848D008F10108C9
:10530000B8F1050FE9D100203EE0EA1992F8260035
:1053100092F827A04AEA002A14220021601D04F016
:105320002CFF009BC3F57F44FC34264405EB880822
:10533000A6EB0B06B6B2152ED8F8BC0007F1040197
:1053400028BF1326594432464944053004F0FBFE79
:10535000D8F8BC305E8395F8223003F00603022BA8
:1053600010D18DF80D304FEA1A238DF80E302B68CE
:105370008DF80FA040228DF80C205B69042203A950
:1053800028469847D8F8BC0005B0BDE8F08F95F8DE
:1053900022B00BF0060BBBF1020FB6D0824683465B
:1053A000BAE72DE9F84304460D464FF0000800F136
:1053B00022074FF0C009E5B1236884F8229084F8F1
:1053C00023805B690222394620469847064668B129
:1053D0004FF4FA730D2239462046FFF70DFF94F87B
:1053E0002230D02B02D13046BDE8F883013DEDB22A
:1053F000E1E72E46F7E7000038B5054608461023DA
:1054000000F8023B0C462949FFF77CFE0423037099
:1054100002234370AB698BB11B787BB106234370C9
:1054200095F82030012B39D10E23437095F82130A7
:10543000012B02BF437843F0200343702B691B7894
:105440001BB1437863F07F0343706B691B781BB11A
:10545000437843F040034370012383702C23C370CF
:10546000E9680B78F3B10430FFF74CFEA96931B15C
:105470000B7823B1FFF746FEE969FFF743FE296980
:105480000B780BB1FFF73EFE69690B780BB1FFF7A4
:1054900039FE001BC0B2831E637038BD022BC5D11C
:1054A0001E23C2E7037143710630DFE713C40B000C
:1054B0002DE9F743054610460E469846019204F042
:1054C000A5FE9DF82C90BDF82870019984B2B9F121
:1054D000000F35D102344FEA49033046A4B243F0FD
:1054E00030033C4400F8013BA4B2224604F07F03A1
:1054F0007F2A88BF43F080037F2A00F8013B4FEAF0
:10550000D414F2D8FFF7FEFD0346B9F1000F0CD01A
:10551000B5F8B820120A0270B5F8B8204270B5F894
:10552000B82001320233A5F8B8203A464146184661
:1055300004F009FE3844801B80B203B0BDE8F0835C
:105540000434C8E773B59DF8186000F122050446DD
:10555000CDE9003613460A462946FFF7A9FF23681E
:1055600002465B6929462046984710B9002002B0E0
:1055700070BD002EFBD04FF4FA73962229462046C8
:10558000FFF7F0FD0428F1D194F822301B09042B19
:10559000ECD1A38CB4F8B8005BBA01339BB2C31A48
:1055A00058425841E3E730B585B0044610461D46E1
:1055B0000391029204F02AFEDDE9022183B20095F4
:1055C0002046FFF7BFFF05B030BD38B51D4682232A
:1055D0000B70B0F8B8301B0A8B70B0F8B830CB70D5
:1055E000B0F8B8300C460133A0F8B8301146201D91
:1055F000FFF788FD00F8015B001BC0B2831E6370DB
:1056000038BD2DE9F0410368DB680446984700285F
:105610004BD004F1220529462046FFF7EDFE236812
:1056200082B25B6929462046984700283DD041F266
:105630007073962229462046FFF794FDC0B20428D5
:1056400033D1638CB3F5087F2FD194F8250010B1C6
:1056500040B2BDE8F08104F1BC0704F1D00857F86E
:10566000043BF3B1032657F8042C2946137912683A
:105670002046FFF7AAFF236882B25B6929462046CD
:10568000984790B14FF4FA73092229462046FFF754
:10569000B3FD30B9013E16F0FF06E4D16FF0010012
:1056A000D7E7B845DBD10020D3E74FF0FF30D0E794
:1056B00010B5C0E90012037210BD1FB504460A22DE
:1056C000084601A902F052F9D4E90001237A01AA9F
:1056D000FFF769FF04B010BDD0B557EC106B90B068
:1056E00004460B4600220949684601F007F9324694
:1056F0003B46694605A801F001F9D4E90001237A87
:1057000005AAFFF750FF10B0D0BD00BF18C40B00B2
:1057100010B503710023C0E90833C0E90A334163BF
:1057200002604383C361036310BD08B5D0F8D000A5
:1057300003681B6B9847003818BF012008BDF8B5F7
:1057400006460F461446C4B1D6F8D00003681B6B5A
:10575000984708B90020F8BDD6F8D000FA2C0368A5
:105760002546A8BFFA25DB682A463946984783B202
:10577000E41A9D42A4B2E6D0ECE70120EBE77047C3
:105780002DE9F8430646884691461F461D460024EB
:10579000D6F8D00003681B6B9847D0B1002D18DBFA
:1057A000D6F8D00003681B69984760B1D6F8D000DE
:1057B00003685B69984708F804000134A4B24C45BB
:1057C00007D03D46ECE70A3D0A202DB201F0C6F8AD
:1057D000DEE72046BDE8F88370B5044600F12205F7
:1057E00096220021284604F0C8FC6168284604F08F
:1057F00005FDD4F8D0002289036829465E6A00239B
:10580000B047003818BF012070BD10B5D421044640
:10581000FEF745FC204610BD10B50446D0F8D00078
:1058200003681B6B984720B1D4F8D0000368DB6A8B
:105830009847012010BD70B503689B6804469847DF
:10584000C8B92046FFF7DDFE042570B1013D15F013
:10585000FF050AD02046FFF7FBFC41F2883001F03B
:105860007DF82046FFF7CDFEEFE7236820469B68D2
:10587000BDE87040184770BD2DE9F04F85B01F4658
:10588000BDF93880BDF83C30A8EB0209A7EB010A4E
:10589000B9F1000FB8BFC9F10009BAF1000FB8BFE4
:1058A000CAF1000AD14583460C46154604DD3A4646
:1058B0002C4647460D469046BC4205DD2A464546E5
:1058C000904622463C4617463E1BB2B20092A8EBD9
:1058D000050282EAE271A1EBE271C6F3C03202FA7C
:1058E00086F64545B4BF01224FF0FF320191761094
:1058F0000292BC421CDCDBF800200393D145D2F8B5
:105900001080C7BF294622462A4621465846C0472E
:10591000019A039BB61AB1B236B2002E05DA029A8A
:105920001544009A56182DB236B2013424B2E0E77D
:1059300005B0BDE8F08F2DE9F347BDF82C8007686E
:10594000BDF92890CDF800800446FF6916468A46C6
:105950001D46B8472368CDF8008009F1FF32324474
:10596000DF6951462B46204612B2B8472368CDF86E
:1059700000809F6932464B4651462046B8476B1E11
:1059800003EB0A012368CDF828809D6932464B4617
:1059900009B22046AC4602B0BDE8F047604737B5D3
:1059A000013B13440468BDF8185001951BB20093E5
:1059B00064690B46A04703B030BD37B5BDF8185039
:1059C0000468CDE90025013B0B4464691BB2A04784
:1059D00003B030BD2DE9F347BDF92890BDF82C8008
:1059E000054692460C46CE18B4420BDA2B68CDF829
:1059F00000809F6921464B46524628460134B847ED
:105A000024B2F1E702B0BDE8F08713B50268019156
:105A1000B0F90E100091546AB0F90C300022114612
:105A2000A04702B010BD704730B54281C2814FF02F
:105A3000FF320024054D426101224460056001816E
:105A4000818104610283827630BD00BF50CB0B00A0
:105A50002DE9F04F2DED028B8DB007460491BDF876
:105A600060100591BDF864100691B0F90C1004980F
:105A70009DF86850814252DDB7F90E1091424EDD1B
:105A8000062111FB0504002C49DD02EBC504002CA6
:105A900045DD03EB83030B9393B2079308339BB26B
:105AA000089100240993052C1CBF2C4B0B9A079ED0
:105AB00016BF1B1900239B5C0393049AABB20A9395
:105AC00004FB05F313FA82F31BB204EB020A08EE9F
:105AD000103AB0460FFA85F90FFA8AFA039BDB07F2
:105AE0002FD5012D3B681FD1D3F810B0059B32B2E2
:105AF00051463846D847039B5B0803930A9B0136FF
:105B00009844099BB6B2B3421FFA88F8E6D1089BC5
:105B1000013B013413F0FF0364B20893C3D10DB00D
:105B2000BDEC028BBDE8F08F059ACDE9009218EE2E
:105B3000101AD3F824B00FFA88F24B463846D847EB
:105B4000D9E7DDE905239342D5D0012D3B6803D188
:105B5000D3F810B0069BCAE7069AE6E74CC60B00DE
:105B600030B50A2985B0044607D1027E638A03EB6B
:105B7000C20363820023238221E00D291FD0037E0C
:105B80000293C38A0193838A0093B0F912200B46D3
:105B9000B0F91010FFF75CFF207E238A00EB400174
:105BA00003EB4103A17E1BB20246238239B1B4F953
:105BB0000C106FF0050505FB00118B42D6DC0120AF
:105BC00005B030BD018242827047012938BF0121F2
:105BD00001767047C18281827047407E704701F034
:105BE0000303B0F90A204376C907B0F9083059BF5A
:105BF0008381C2818281C3817047B0F90C007047F4
:105C0000B0F90E0070470000F0B5457EBDF81440B5
:105C1000022D69D0032D00F09980012D6CD10589EA
:105C2000D2432A4412B2002A5DDBB0F908509542F3
:105C300059DD0029BEBF5B181BB20021B0F90A0074
:105C4000CD188542C4BF431A1BB2002B4BDDC1F3F4
:105C5000C400DFF820C102EBC01211F00701DBB273
:105C60000CEB02001AD0C1F10805404EEDB2AB4278
:105C7000775D3FBFA5EB030EFF2646FA0EF63740D1
:105C80001CF80260012C0CBF3E43BE43AB420CF833
:105C9000026028D308390B44DBB28030072B19D9B6
:105CA000012C4FF0FF3518BF0025EDB200F1800147
:105CB0001A46083AD2B2072A01F8805C01F1800145
:105CC000F7D8A3F10802C2F3C402013200EBC210FC
:105CD00003F007033BB1264AD25C0378012C0CBFCA
:105CE000134393430370F0BD4589D2432A44CD1832
:105CF0000189491B12B209B2002AF4DBB0F90A503B
:105D00009542F0DD0029BEBF5B181BB20021B0F93F
:105D10000870CE18BE42C4BF6B1A1BB2002BE2DD66
:105D2000D010802510FB05111248014402F0070035
:105D300001228240012CD2B20B440CD18B42D2D032
:105D400011F8010B104301F8010CF7E7CD18418958
:105D5000491B09B267E7D243D2B28B42C3D011F8D4
:105D6000010B104001F8010CF7E700BFA0DE032093
:105D700098DE0320A8DE0320F0B5457EBDF8144070
:105D8000022D34D0032D00F09B80012D37D1D51882
:105D90000289521B12B20029C0F29180B0F90A5058
:105DA0008D4240F38C80002ABEBF9B181BB200229C
:105DB000B0F90870D618BE42C4BFAB1A1BB2002B94
:105DC0007DDDC810802510FB05224548024401F006
:105DD000070001218140012CC9B2134475D19A42B8
:105DE0006DD012F8010B084302F8010CF7E70589A2
:105DF000C9432944D5184289521B09B212B200295D
:105E00005DDBB0F908508D4259DD002ABEBF9B18FA
:105E10001BB20022B0F90A00D5188542C4BF831A0C
:105E20001BB2002B4BDDC2F3C400DFF8B4C001EBA2
:105E3000C01112F00702DBB20CEB01001AD0C2F164
:105E40000805284EEDB2AB42775D3FBFA5EB030ED0
:105E5000FF2646FA0EF637401CF80160012C0CBFF5
:105E60003E43BE43AB420CF8016028D3083A1344CA
:105E7000DBB28030072B19D9012C4FF0FF3518BF4A
:105E80000025EDB200F180011A46083AD2B2072A85
:105E900001F8805C01F18001F7D8A3F10802C2F398
:105EA000C402013200EBC21003F007033BB10E4AFB
:105EB000D25C0378012C0CBF134393430370F0BDF5
:105EC0004589C943294409B265E7C943C9B29A4221
:105ED000F5D012F8010B084002F8010CF7E700BFFB
:105EE000A8DE0320A0DE032098DE03207047000018
:105EF000F8B50D1E064614461F462DDBFFF77DFE46
:105F0000A84229DD002C27DB3046FFF779FEA042AE
:105F100022DD3046FFF761FE02281ED0032825D07F
:105F2000012804D13389E2431A442C4615B2002CCF
:105F30002246B8BFE21DD210802112FB01550E4946
:105F4000012204F007044B5702FA04F464B29742AA
:105F50000CBF2343A3434B55F8BD318972890139E6
:105F6000E4434D1B14442DB224B2E0E77389013B96
:105F70005B1B25461CB2DAE7A8DE032010B52421FE
:105F80000446FEF78CF8204610BD000038B54022CC
:105F900004460D468021FFF747FD064B2360FF2393
:105FA00084F8213063774FF6FF73E38384F8205041
:105FB000204638BD88CB0B0002484FF48062002198
:105FC00004F0DBB8A8DE032007B590F8223043B117
:105FD0000191FEF749FC019903B05DF804EB01F073
:105FE0009FB80B46817F407F012203B05DF804EB30
:105FF00001F054BE38B590F91D30013304460D460A
:106000001DD090F92100012180B201F0DEFD94F94C
:106010001F00002180B201F0D8FD94F92100002179
:1060200080B201F0D2FD29462046FFF7CDFF94F95A
:1060300021000121BDE8384080B201F0C6BD01F069
:106040006DFE94F91B1000F053FD01F067FE03682C
:1060500000219B68984701F061FE036829469B6810
:10606000984701F05BFEBDE8384000F048BD0000F5
:10607000F8B521210446FFF7BDFF00212046FFF7B8
:10608000B9FF7F212046FFF7B5FF22212046FFF709
:10609000B1FF00212046FFF7ADFF07212046FFF7A3
:1060A000A9FF94F91D30294F01332AD094F921001A
:1060B000012180B201F089FD94F91F00012180B215
:1060C00001F083FD94F92100002180B201F07DFDF3
:1060D000012000F087F94FF48065013D17F8011B9E
:1060E0002046ADB2FFF770FF002DF6D1012000F081
:1060F00079F994F921000121BDE8F84080B201F05E
:1061000064BD002501F00AFE94F91B1000F0F0FCBC
:1061100001F004FE036840219B68984705F11006D2
:10612000B6B201F0FBFD0368795D9B6898476B1C74
:106130009DB2AE42F5D101F0F1FD00F0E0FCB6F504
:10614000806F00D1F8BD3546DCE700BFA8DE032034
:1061500038B590F91D300177013304460D46C276FB
:1061600000F0C98090F91F00012180B201F01CFDF0
:1061700094F92100012180B201F016FD94F822303B
:10618000002B00F0A68094F92100012180B201F0DB
:106190001CFDFEF769FB012100F0BAFEFEF764FB6F
:1061A000102100F097FFFEF75FFB002100F0C4FE16
:1061B000FEF75AFB00F098FE94F92000012180B20E
:1061C00001F0F2FC94F92000012180B201F0FDFC05
:1061D000012000F0C3FB94F92000002180B201F0FF
:1061E000F4FC0A2000F0BAFB94F92000012180B2EF
:1061F00001F0EBFC2046AE21FFF7FCFE2046D52146
:10620000FFF7F8FE20468021FFF7F4FE2046A82184
:10621000FFF7F0FE20463F21FFF7ECFE2046D3219A
:10622000FFF7E8FE20460021FFF7E4FE204640216C
:10623000FFF7E0FE8D212046FFF7DCFE012D0CBFAD
:10624000102114212046FFF7D5FE20462021FFF71C
:10625000D1FE20460021FFF7CDFE2046A121FFF709
:10626000C9FE2046C821FFF7C5FE2046DA21FFF708
:10627000C1FE20461221FFF7BDFE81212046FFF717
:10628000B9FE012D0CBF9F21CF212046FFF7B2FEA2
:10629000D9212046FFF7AEFE012D0CBF2221F121AE
:1062A0002046FFF7A7FE2046DB21FFF7A3FE20468E
:1062B0004021FFF79FFE2046A421FFF79BFE2046CA
:1062C000A621FFF797FE2046AF21BDE83840FFF733
:1062D00091BE94F91D00012180B201F065FC94F992
:1062E0001E00012180B201F05FFC94F82230002BE7
:1062F0003FF462AF47E701F011FD00F0C3FB5BE73D
:106300000022C0E904220160704710B504460088ED
:1063100001F087FC40F21233A0F10B029A4207D839
:10632000C4E90100E06000F065F8A061012010BD43
:106330000020FCE78068704710B5044600F05AF86A
:10634000A369C01A074B98420AD9D4E9043293FBD7
:10635000F2F3E36000F04EF80023C4E90433A061D7
:1063600010BD00BF20A1070010B58368436004463C
:10637000008801F056FC2369A0601844636920611D
:10638000013363612046FFF7D7FFD4E90112511AA8
:10639000B1F5C87F10DCB2F52F7F0DDCE368D31AAE
:1063A000962B0BDCC82902DDB2F52F7F08D1322BEA
:1063B000CCBF0220032010BD0020FCE70120FAE73B
:1063C0000220F8E708B5024B1B685B6C019308BD1F
:1063D0004802030008B5024B1B685B68019308BDC7
:1063E0001802030008B5024B1B68DB68019308BD67
:1063F0001802030008B5024B1B685B69019308BDD6
:106400001802030008B5024B1B685B68019308BDC6
:106410002C02030008B5024B1B689B68019308BD62
:106420002C02030008B5024B1B68DB68019308BD12
:106430002C02030008B5024B1B681B69019308BDC1
:106440002C02030008B5024B1B685B69019308BD71
:106450002C02030008B5024B1B689B6A019308BD20
:106460002C02030008B5024B1B681B6B019308BD8F
:106470002C02030008B5024B1B68DB6C019308BDBE
:106480002C02030008B5024B1B689B6F019308BDEB
:106490002C02030008B5024B1B68DB68019308BDA2
:1064A0002802030008B5024B1B689B69019308BDD5
:1064B0002802030008B5024B1B68DB69019308BD85
:1064C0002802030008B5024B1B681B6A019308BD34
:1064D0002802030008B5024B1B685B6A019308BDE4
:1064E0002802030008B5024B1B689B6A019308BD94
:1064F0002802030008B5024B1B68DB6A019308BD44
:106500002802030008B5024B1B681B6B019308BDF2
:106510002802030008B5024B1B685B6B019308BDA2
:106520002802030008B5024B1B681B6C019308BDD1
:106530002802030008B5024B1B681B6D019308BDC0
:106540002802030008B5024B1B685B69019308BD74
:106550006C02030008B5024B1B685B69019308BD20
:106560006402030008B5024B1B681B6A019308BD57
:106570006402030008B5024B1B689B6A019308BDC7
:106580006402030008B5024B1B689B68019308BDB9
:106590006802030008B5024B1B68DB68019308BD65
:1065A0006802030008B5024B1B689B69019308BD94
:1065B0003802030008B5024B1B68DB69019308BD74
:1065C0003802030008B5024B1B681B6A019308BD23
:1065D0003802030008B5024B1B689B6A019308BD93
:1065E0003802030008B5024B1B681B6B019308BD02
:1065F0003802030008B5024B1B689B6B019308BD72
:106600003802030008B5024B1B681B68019308BDE4
:106610003002030008B5024B1B689B68019308BD5C
:106620003002030008B5024B1B68DB68019308BD0C
:106630003002030008B5024B1B681B69019308BDBB
:106640003002030008B5024B1B685B69019308BD6B
:106650003002030008B5024B1B68DB69019308BDDB
:106660003002030008B5024B1B681B6A019308BD8A
:106670003002030008B5024B1B685B6A019308BD3A
:106680003002030008B5024B1B68DB6B019308BDA9
:106690003002030008B5024B1B681B6C019308BD58
:1066A0003002030008B5024B1B685B6C019308BD08
:1066B0003002030008B5024B1B68DB68019308BD7C
:1066C0003C02030008B5024B1B681B69019308BD1F
:1066D0003C02030008B5024B1B685B69019308BDCF
:1066E0003C02030008B5024B1B689B69019308BD7F
:1066F0003C02030008B5024B1B68DB69019308BD2F
:106700003C02030008B5024B1B681B6A019308BDDD
:106710003C02030008B5024B1B689B6A019308BD4D
:106720003C02030008B5024B1B681B6C019308BDBB
:106730003C02030008B5024B1B681B68019308BDAF
:106740004C02030008B5024B1B685B68019308BD4F
:106750004C02030008B5024B1B681B69019308BD7E
:106760004C02030008B5024B1B685B69019308BD2E
:106770004C02030008B5024B1B689B69019308BDDE
:106780004C02030008B5024B1B68DB69019308BD8E
:106790004C02030008B5024B1B681B6A019308BD3D
:1067A0004C02030008B5024B1B685B6B019308BDEC
:1067B0006002030008B5024B1B681B6D019308BD06
:1067C0006002030008B5024B1B685B68019308BDBB
:1067D0002002030008B5024B1B685B69019308BDEA
:1067E0002002030008B5034B1B68D3F888300193DF
:1067F00008BD00002002030008B5034B1B68D3F856
:106800009430019308BD00002002030008B5024B3C
:106810001B68DB6B019308BD4402030008B5024B03
:106820001B685B68019308BD4002030008B5024B7A
:106830001B689B68019308BD4002030008B5024B2A
:106840001B68DB68019308BD4002030008B5024BDA
:106850001B681B69019308BD4002030008B5024B89
:106860001B685B69019308BD4002030008B5024B39
:106870001B689B69019308BD4002030008B5024BE9
:106880001B68DB69019308BD4002030008B5024B99
:106890001B681B6A019308BD4002030008B5024B48
:1068A0001B681B6B019308BD4002030008B5024B37
:1068B0001B685B6B019308BD4002030008B5024BE7
:1068C0001B681B6C019308BD4002030008B5024B16
:1068D0001B685B6C019308BD4002030008B5024BC6
:1068E0001B681B68019308BD1C02030008B5024B1E
:1068F0001B685B68019308BD1C02030008B5024BCE
:106900001B68DB68019308BD1C02030008B5024B3D
:106910001B685B6A019308BD1C02030008B5024BAB
:106920001B681B6B019308BD1C02030008B5024BDA
:106930001B68DB6B019308BD1C02030008B5024B0A
:106940001B681B6C019308BD1C02030008B5024BB9
:106950001B685B6C019308BD1C0203000021FFF75C
:1069600039BF0000024800230360FFF72BBD00BFC2
:10697000C4E60320002240681146FFF787BF0022CB
:1069800040681146FFF792BF40680022FFF786BFBC
:106990004068002281F00101FFF770BF00234068CA
:1069A0001A461946FFF762BF002340681A46194687
:1069B000FFF754BF002240681146FFF747BF00228F
:1069C00040681146FFF732BF406800220221FFF7FE
:1069D00035BF002340681A46FFF720BF024B032251
:1069E0005A60024A1A607047C8E60320D8CB0B00F1
:1069F0007047F8B5064615460C468F18BC4206D0BF
:106A0000336814F8011B9B6830469847F6E7284620
:106A1000F8BD007C0022FFF755BD007C0021FFF788
:106A200059BD007C0021FFF75DBD007C0021FFF710
:106A300061BD007C0021FFF765BD10B5142104463F
:106A4000FDF72DFB204610BD38B5044615464FF422
:106A50007A730022C4E90123094B2174084623609C
:106A60002946FFF75FFDBF3008D16B69DB0705D50D
:106A70006868FFF73BFFE868FFF738FF204638BD3E
:106A800014CC0B000023007C1A461946FFF702BD08
:106A90007FB500221423CDE90122ADF804300B7834
:106AA0008DF808304B680393CB680493007C0B7A15
:106AB000059301A9FFF73EFD07B05DF804FB1FB584
:106AC000003B8DF800104FF06401039118BF0123C3
:106AD000694601928DF80830FFF7DAFF05B05DF8DE
:106AE00004FB0123FFF7EBBF007C0022FFF7DABCB9
:106AF000C9B2FFF7F9BF007C0022FFF7DBBC012120
:106B0000FFF7F9BF704710B518210446FDF7C7FA23
:106B1000204610BDF0B5037D062B8DB00E4600F16A
:106B200004074FF0000412D000F1080515F8011D0C
:106B30000A22304600F073F9AF42044419D0002C09
:106B4000F4D02E21304600F051F90444EEE72F2313
:106B50006A4639460A208DF80040FFF7FBFC68467C
:106B600003F054FB33680246DB68694630469847B9
:106B7000044620460DB0F0BD10B5054B0446112269
:106B800040F8043B002103F0F8FA204610BD00BF96
:106B90003CCC0B000346074A10B543F8042B01F127
:106BA000100251F8044B43F8044B9142F9D10A7892
:106BB0001A7010BD3CCC0B00037D042B04D140683F
:106BC000003818BF01207047062B07D143683BB936
:106BD00083682BB9C3681BB90069F1E700207047CF
:106BE0000120704710B59DF8084044EA032343EAAA
:106BF000024242EA016104234160037510BD0000B6
:106C000007B5064B0360CB7800938B784A780978F8
:106C1000FFF7E8FF03B05DF804FB00BF3CCC0B00BE
:106C2000014B024A1A607047D0E6032048CC0B00A3
:106C3000002340681A46FFF7F1BD40680022022198
:106C4000FFF7FCBD002240681146FFF7EFBD0022B0
:106C500040681146FFF7FABD002340681A461946FE
:106C6000FFF7FCBD002340681A461946FFF7FEBD3A
:106C700040680021FFF722BE40680021FFF726BED2
:106C80004068002281F00101FFF7F8BD4068002252
:106C9000FFF704BE002240681146FFF707BE00223E
:106CA00040681146FFF7F2BD2DE9F04395B0144658
:106CB0000D460746FFF760FF00211C220DA800913A
:106CC00003F05BFA40230C9320466B460CAA00218C
:106CD000FFF760FC044600284BD10246012168689A
:106CE000FFF7B4FD0221804622466868FFF7AEFD3B
:106CF000009E81462146002E3BD0002939D1736881
:106D0000022B03D00A2B11D0F669F4E7B8F1000F7B
:106D1000FAD0716906A8043107ADFFF771FF0FCDF6
:106D20003C1D0FC42B6823704146EDE7B9F1000FFD
:106D3000EAD07469102201A803F01FFA06238DF827
:106D4000143001AD04F108031834186859682A4654
:106D500003C20833A3421546F7D101A906A807AD1F
:106D6000FFF718FF0FCD3C1D0FC42B682370494659
:106D7000CAE70098FFF706FC384615B0BDE8F08377
:106D8000024B034A1A6000225A607047D4E603207F
:106D900054CC0B00F8B506460D468F180024BD42B2
:106DA0000CD0336815F8011B9B6830469847031ECA
:106DB00001DB1C44F3E7002C08BF1C462046F8BD4D
:106DC00013B50446084659B1019103F01FFA236830
:106DD0000199DB680246204602B0BDE81040184722
:106DE00002B010BD08B5FFF7EBFF08BD03689B6854
:106DF000184738B50D210546FFF7F8FF0A2104466C
:106E00002846FFF7F3FF204438BD38B50546FFF7A5
:106E1000D7FF04462846FFF7ECFF204438BD30B5C5
:106E20008BB00023012A8DF8243098BF0A2209ACC8
:106E30000D46B1FBF2F101FB125303F0FF03092BE6
:106E400094BF30333733DBB2AA4204F8013DEFD9A7
:106E50002146FFF7B5FF0BB030BD2DE9F04186B0FC
:106E600000AF05460E46381D142114463B60FFF75F
:106E70004DFD13280ED8391D2846FFF7A1FF044603
:106E80001EB12846FFF7B5FF044420461837BD461B
:106E9000BDE8F08100F1080323F00703E846ADEBFD
:106EA000030D2246411C3B686846FFF72FFD6946EB
:106EB0002846FFF785FF0446C546E1E7014B00225F
:106EC0009A607047DCE603200021FFF7EBBB00214E
:106ED000FFF7E0BB10B5044608462170FFF7BAFB88
:106EE00000236360204610BD13B504460078FFF709
:106EF000EEFF58B9207801904FF6FF71FFF782FB43
:106F0000019802B0BDE81040FFF7DEBF02B010BD2F
:106F100013B5044600780191FFF7D9FF019948B9EC
:106F200020780190FFF776FB019802B0BDE8104091
:106F3000FFF7CABF02B010BD13B504460078019137
:106F4000FFF7C5FF019948B920780190FFF76AFB68
:106F5000019802B0BDE81040FFF7B6BF02B010BD07
:106F60000078FFF7B1BF0000400830B5186000247A
:106F700018688842E5B206D90134082C02D04008CE
:106F80001860F5E70725024B5B5D137030BD00BF4D
:106F900088CC0B002DE9F04306468FB000780C46F4
:106FA000FFF795FF00281BDB35781422002109A884
:106FB00003F0E3F80B23002209A92846ADF824309A
:106FC000FFF758FB9DF82D3013B19DF82C5055B1AB
:106FD0000027B946B846012523795DB1C3B1002029
:106FE0000FB0BDE8F083DDF830809DF834909DF857
:106FF0003570F1E7002B35D1A368434508D18DF8F2
:1070000020908DF82170BDF82020A3899A42E6D007
:107010000023A1688DF80F300A9804AB0DF10F0220
:10702000FFF7A2FF217985B989B9A36843450ED33B
:107030008DF820908DF82170BDF82020A3899A4208
:1070400005D1049B434502D1C9E70029F9D10023AA
:107050000193637B00939DF80F20237B3078FFF72B
:1070600011FBBCE7CDE900552B462A460121F5E787
:107070002DE9F04188B000230446007802930E46C3
:107080001746FFF724FF054600BB94F80080014631
:10709000142203A803F071F80B232A4603A94046E3
:1070A000ADF80C30FFF7E6FA04988DF8075002AB04
:1070B0000DF1070207FB06F1FFF756FF20789DF858
:1070C0000710FFF7B7FA2078FFF7FEFE029808B026
:1070D000BDE8F08138B5044600780D46FFF7F7FEAD
:1070E0000346D0B9616899B10C4A12F8010B854288
:1070F00002D00133082BF8D10133DBB20122D94091
:107100002046FFF7B5FF2078BDE83840FFF7DCBE2A
:1071100020782946FFF78EFAF5E738BD88CC0B00BA
:1071200008B50078FFF78EFAC0B208BD054B022201
:107130001A60054B054A9A600020C3E90000FFF77A
:1071400041BB00BFF8E60320ECE603200000FFFF90
:1071500013B503688DF80710DC6B01224FF0FF3385
:107160000DF10701A04702B010BD10B40368DC6B3D
:107170004FF0FF33A4465DF8044B604713B5134648
:1071800002688DF80710D46B0DF107010122A047AA
:1071900002B010BD10B54369B3F88620B3F884304F
:1071A0009A42044608D06369B3F88420511CA3F8BE
:1071B00084101344187910BD03681B699847002890
:1071C000F1D14FF0FF30F6E7704743691868C043CC
:1071D000C00F704770470000064B994210B500F190
:1071E0000C0405D0084600F0FFFD002808BF00246D
:1071F000204610BDC8CB0B0010B5AC210446FCF7EF
:107200004EFF204610BDAC21FCF749BF2DE9F041EF
:107210004FF0000886B01C46C0F8048005460E46B4
:1072200017464146102202A802F0A7FF631C09D0AE
:107230004FF47A73B4FBF3F203FB1244CDE9022856
:107240005C430494686910230093006802AB41F228
:10725000050240F6FF71FFF7A5F9002807DAFFF7EE
:1072600065FB03686B60002006B0BDE8F0816869CB
:10727000002300683A463146FFF7B4F9031EEEDBFF
:107280001846F1E738B584690A4B036005467CB1BE
:107290006368013B63605BB9236820469B6898473D
:1072A000A368013BA3601BB923682046DB689847AD
:1072B000284638BDCCCC0B0010B50446FFF7E2FFE2
:1072C00020461C21FCF7EBFE204610BD30B587B0F0
:1072D000044601AD6846FFF793FC0FCD04340FC49C
:1072E0002B68237007B030BD70B54D69054B04465F
:1072F0008C3544F8043B06460FCD0FC42B68237031
:10730000304670BD3CCC0B002DE9F0439846036835
:1073100093B00D460024DB6A064617469847284678
:107320006B46224621460094FFF734F905460028B3
:1073300063D1009B002B4BD05B69002B48D006A883
:10734000FFF71AFC009B5C696378022B04D1211DB6
:1073500006A8FFF7BBFF26E00A2B24D111222946FD
:1073600001A802F00AFFA368002B38D004F108033B
:107370000DF1040C183418685968624603C20833CA
:10738000A3429446F7D1062301A90CA88DF8143026
:10739000FFF700FC0DF1340CBCE80F0007AC0FC484
:1073A000DCF80030237006A8FFF706FC80B13368D4
:1073B00007ADD3F82090124B0C930FCD0DAC0FC43A
:1073C0002B6823703A4643460CA93046C847054609
:1073D0000098FFF7D7F8284613B0BDE8F083E368BC
:1073E000002BC3D14FF6FF70D4F81090FFF7BAF816
:1073F0008145BBD104F11401AAE72546E8E700BFA7
:107400003CCC0B0038B543691A68002A054610DAEF
:10741000B3F88620B3F884309A420AD103681B6916
:107420009847044628B92B682846DB6A98472046C7
:1074300038BD0120FCE710B54369B3F88620B3F8E6
:1074400084309A42044605D06369B3F8842013441B
:10745000187910BD03681B6998470028F4D14FF0D4
:10746000FF30F6E7F8B543691746B3F88620B3F85E
:1074700084309A4205460E4616D06969B1F88430C8
:10748000B1F88640E41ABC4228BF3C460433224689
:107490001944304602F049FE6A69B2F88430234448
:1074A000A2F884302046F8BD03681B69984700287D
:1074B000E3D14FF0FF34F5E742690023A2F88430AE
:1074C0004269A2F8863070472DE9F0411F460368F3
:1074D0000C46DB6A8AB0054616469847237DD5F8E8
:1074E0001480042B0CBF02200A2006220121FFF782
:1074F00081F8C8F800006B691B68002B08DA2B685C
:107500002846DB6A0024984720460AB0BDE8F0818F
:107510002846FFF7D1FFB7B1002303A9F8B20393C0
:10752000ADF81030FFF70EF80028E8D1686906239F
:107530000093006803AB41F20B0240F6FF71FFF7C6
:1075400031F80028DBD11C22002103A802F015FE2F
:10755000237D042B1DD14FF407733046ADF80C305A
:10756000FFF708F8ADF80E006068FEF7FBFF049027
:107570006B691C22186803A9FFF724F80028BED104
:1075800004340FCC6D698C350FC523682B70012432
:10759000BAE740F61C233046ADF80C30FEF7EAFFA0
:1075A00005AEADF80E00231D04F1140718685968E4
:1075B000324603C20833BB421646F7D1D8E7000073
:1075C00030B54269B2F886308BB004462BB1B2F8C0
:1075D00084209A4201D1FFF76FFF61690868002893
:1075E00018DBB1F886507F2D14D804310823C5F17B
:1075F00080022944FEF7EEFF002813DD6369B3F82B
:1076000086200AB9A3F884206369B3F88620104461
:10761000A3F886006369B3F88600B3F88430C01A13
:107620000BB030BDFFF782F903680B2BF2D0FFF7E8
:107630007DF903680B2BEDD020230025CDE9023521
:10764000FFF774F903680193084B0949009302AAF4
:107650002B463220FFF7AEF863691868FEF7AAFFE1
:1076600063694FF0FF321A60D4E700BF97CC0B007C
:1076700090CC0B0010B5436904461868002801DB64
:10768000FEF798FF63694FF0FF321A6060691122BC
:1076900000218C3002F071FD2046BDE81040FFF75C
:1076A0000BBF10B5002304460160C0F88430883059
:1076B000FFF762FA204610BD73B500234FF47A72CB
:1076C000C0E901320E4A0361026043610446AC2006
:1076D0000191FCF7E0FC051E05F10C0608D0012322
:1076E000C5E90133074B01992B603046FFF7D9FFFD
:1076F0002046C4E90565FFF7DFFE02B070BD00BF9C
:10770000CCCC0B00B0CC0B0010B54FF0FF310446D1
:10771000FFF7D2FF204610BD10B5044600680028D0
:1077200001DBFEF747FF204610BD0C30FFF7F4BF2A
:10773000024B1A68024B1A60704700BFA8E2032090
:10774000FCE6032070474174704708B5007CFEF7E3
:10775000E1FF20EAE07008BD08B5007CFEF7B2FF4B
:1077600020EAE07008BD08B5007CFEF7BBFF40EAE8
:10777000E07008BD08B5007CFEF7ACFF40EAE070A1
:1077800008BD007CFEF7B6BF37B5457C04462DB179
:10779000207C03B0BDE83040FEF78CBF007C019137
:1077A000FEF7B8FF00280199F2DC284603B030BD8F
:1077B00010B514210446FCF772FC204610BD0000F1
:1077C00010B54FF47A730446084611460022C4E906
:1077D0000123044B2360012320746374FEF7A2FF8E
:1077E000204610BD34CD0B00417470477047704780
:1077F00008B50021007CFEF7BDFF40EAE07008BD3F
:1078000008B50121007CFEF7B5FF40EAE07008BD35
:1078100008B5007CFEF7A6FF20EAE07008BD08B5B9
:10782000007CFEF797FF20EAE07008BD13B5044620
:10783000007C0191FEF796FF0028019901DC607C35
:1078400020B1207CFEF79EFF20EAE07002B010BD60
:10785000007CFEF79FBF10B514210446FCF71FFC07
:10786000204610BD10B54FF47A7304460846002137
:10787000C4E90113044B236001232074637411468F
:10788000FEF758FF204610BD64CD0B00007C00229F
:10789000FEF758BF10B514220446002102F06DFC1B
:1078A000204610BD10B50F4C88B003A8FFF7F2FFBB
:1078B0002178BFF35B8F11F001010FD120460191B8
:1078C000FCF7FCFB019948B103AA0748FFF7CAFF80
:1078D0002046FCF7F8FB054802F00AFC024808B015
:1078E00010BD00BF00E7032004E70320ED770B0085
:1078F000002240681146FEF7A9BF002240681146E9
:10790000FEF7C4BF002240681146FEF7CFBF4068B3
:107910000022FEF7C3BF4068002281F00101FEF79C
:10792000ADBF002340681A461946FEF79FBF0023EB
:1079300040681A461946FEF791BF0022406811467A
:10794000FEF774BF406800220221FEF777BF0023D4
:1079500040681A46FEF762BF024B04225A60024A90
:107960001A60704718E7032094CD0B002DE9F04111
:10797000931E8CB0222B4FF000030D4614468DF859
:107980002C3027D900282ADA2E462D2306F8013B71
:1079900040420A240DF12B074FF001082246014610
:1079A00001A802F0AEFB029B0198092BCCBF372245
:1079B000302252FA83F307F8013908F10108002850
:1079C000ECD14246791C304602F0AFFB28460CB0A1
:1079D000BDE8F0810A2AD5D018B12E46DAE70A248C
:1079E000FAE730238DF82B302E460DF12A074FF0A1
:1079F0000208E6E7014B1860704700BFB0E20320C1
:107A000008B50B4B43B1FFF74DFF03681B6998475F
:107A1000002801DDAFF30080064B43B100F0BEF952
:107A200003681B699847002801DDAFF3008008BD9B
:107A3000000000000000000008B5FFF7E1FFFEF7BE
:107A4000D9FC014B186008BD28E703200548064A09
:107A5000064908B5121A02F068FB054B054A1A6080
:107A600008BD00BF00F4032004F40320DCD20B00A7
:107A700000F403201E1C279A07B5002300931A4622
:107A80006FF07701FEF7B8FE03B05DF804FB00006D
:107A900007B543880A2B08D0502B0BD1094B1B6824
:107AA0004BB103B05DF804EB1847FFF7E5FF03B0F7
:107AB0005DF804FB002300931A466FF07701FEF790
:107AC0009BFEF4E724E7032010B512480021FEF7DF
:107AD0003DFF114B1A68114B9A42114B0CBF01220A
:107AE00000221A7001D0FFF7B1FFFEF773FC0446C5
:107AF00002F04CFB0B4B13B12046AFF3008000218A
:107B00000848FEF783FEBDE8104007480021FEF755
:107B100069BE00BFF5790B0000F403201E1C279AF4
:107B200020E7032000000000917A0B00232813B502
:107B300002D9002002B010BDA0F10B03022B1AD80D
:107B4000174C2178BFF35B8F11F001010BD1204658
:107B50000191FCF7B3FA019928B11248FFF7BAF97D
:107B60002046FCF7B0FA0F4B1878FEF77BFD002893
:107B7000DFD10120DEE7012809D800F0CFF800218D
:107B8000007CFEF7C7FC80F00100C0B2D2E70938E4
:107B90000128EED800F002F9007CFEF7B3FDF2E711
:107BA000B8E60320BCE60320232838B504460D467A
:107BB0000AD8FF2908D0FFF7B9FF28B12946204687
:107BC000BDE83840FEF726BC38BD38B504460D4642
:107BD000FEF728FCFF2810D0062804D84D2323FAEE
:107BE00000F0C30709D42046FFF7A0FF28B12946BB
:107BF0002046BDE83840FEF71DBC38BD10B5044630
:107C0000FEF710FC031FDBB2012B08D92046FFF75B
:107C10008DFF20B12046BDE81040FEF713BC0020C8
:107C200010BD0D2810B504469CBF0E34A4B22046EA
:107C3000FFF77CFF50B103212046FEF7E3FB03284A
:107C400004D12046BDE81040FEF70CBC002010BD5A
:107C500038B504460D46FFF769FFF0B10421204610
:107C6000FEF7D0FB042805D1A9B22046BDE8384074
:107C7000FEF7F0BB02212046FEF7C4FB02280CD120
:107C80002046FEF7CFFB012801D0042805D1294664
:107C90002046BDE83840FEF7F5BB38BD2DE9F04180
:107CA00090461F46072406460D46C4F10701B8F169
:107CB000000F12D147FA01F101F001013046FFF740
:107CC00084FF01212846FFF780FF00212846FFF7A7
:107CD0007CFF013CE9D2BDE8F08147FA04F1EBE713
:107CE000FEF7C8BB7047000038B50A4B036001239C
:107CF000044643610849202000F074F820256060A4
:107D00000549A560284600F06DF8C4E90305204642
:107D100038BD00BF18000100C8CD0B0030B50E4DB6
:107D20002978BFF35B8F11F0010487B011D1284689
:107D3000FCF7C4F968B16846FFF7D6FF6A462146EA
:107D40000648FEF781FE2846FCF7BDF9044802F01C
:107D5000CFF9024807B030BD2CE7032030E70320FD
:107D6000E57C0B007047000038B5044614252A4610
:107D7000002102F002FA2580402507492581284686
:107D8000258200F02FF804496060284600F02AF8A8
:107D9000E060204638BD00BFC8CD0B0030B50E4DA9
:107DA0002978BFF35B8F11F0010487B011D1284609
:107DB000FCF784F968B101A8FFF7D6FF01AA2146B4
:107DC0000648FFF7FDFC2846FCF77DF9044802F061
:107DD0008FF9024807B030BD44E7032048E703208D
:107DE000657D0B00FCF759B9014900F0F9B800BFF7
:107DF000E4CD0B007FB500241023CDE902340368E5
:107E000015469E6912686B46CDE90044B0479DF85F
:107E1000043003F00603062B03BF009B2B600120F8
:107E2000204604B070BD0098904214BF0120062087
:107E30007047000010B5034B0360044600F0CDF816
:107E4000204610BD24CE0B0010B50446FFF7F2FF0C
:107E500020460821FCF723F9204610BD2DE9F0410A
:107E60001F46DDE90834DDF81880984506461546BA
:107E700007D1079900F0B4F818B165710020BDE88A
:107E8000F0813946304600F0ABF80028F6D00123E7
:107E9000C4F800802571A371F0E738B515461C467B
:107EA00000F09EF820B10823E360062325602371CB
:107EB00038BD73B505460C4601921E4600F090F899
:107EC00050B9032E08D82368019A5B6929462046D9
:107ED00002B0BDE87040184702B070BD10B5034B4A
:107EE00003600446FFF7A6FF204610BD84CE0B00BA
:107EF00010B50446FFF7F2FF20460C21FCF7CFF83F
:107F0000204610BDF7B5089F974205460E46144619
:107F10000AD0A86802680897156A31462246AC461E
:107F200003B0BDE8F04060471946019300F058F8EF
:107F3000019B0028EDD0062003B0F0BD2DE9F14FE4
:107F40000D461946DDE90A4BDDE90CA681461746C8
:107F5000984600F045F890B1002D3460377109DB88
:107F600061198A450CBF06210121B171002001B0C1
:107F7000BDE8F08F0235F9D10123B371F6E754451E
:107F800006D15946484600F02BF808B17771EDE765
:107F9000D9F808000368CDE90CA6CDE90A4BDC69E5
:107FA0003A4643462946A44601B0BDE8F04F604733
:107FB0002DE9F04107460C4615461E46FFF76DFFBA
:107FC00048B9B86803689F692A4633462146BC46CB
:107FD000BDE8F0416047BDE8F08170470020704780
:107FE000814208B50ED0406803782A2B0CD049682E
:107FF0000B782A2B08BF013102F0F6F8B0FA80F0B6
:10800000400908BD0120FCE70020FAE7000000005D
:10801000F8B52DED028B57EC106B55EC114B00F0C1
:10802000CBF8634BB0EE408AF0EE608A93F90030F3
:1080300001332AD022462B462046294601F0C4FCB3
:1080400018BB32463B463046394601F0BDFC00289D
:1080500044D1002200233046394601F083FCD8B1D8
:10806000002200232046294601F07CFC00283DD157
:1080700045EC104B00F010FF38B120462946002295
:10808000002301F079FC00285CD1B0EE480AF0EE44
:10809000680ABDEC028BF8BDB0EE480AF0EE680A43
:1080A00000F0FAFE58B351EC180B0022002301F047
:1080B00059FC0028E9D047EC106B00F0EDFE0028D9
:1080C000E3D045EC104B00F0E7FE0028DDD0FEF7D2
:1080D0002DFC22239FED2E8B0360D6E720462946F8
:1080E0000022002301F03EFC0028CED09FED2A8B19
:1080F000B0EE480AF0EE680ABDEC028BF8BD47EC22
:10810000106B00F0C9FE0028CDD045EC104B00F0FC
:10811000C3FE0028C7D053EC182B18EE100A1946DE
:1081200001F052FC20BBFEF701FC034622221A603C
:10813000304639460022002301F01EFC48B99FED6D
:10814000188BA2E7FEF7F2FB21239FED178B03604C
:108150009BE745EC104B00F0B3FE224651EC100BB0
:108160002B4601F0FFFB0028E9D19FED0F8B8CE738
:10817000FEF7DCFB00220023212101601046194696
:1081800001F0B2FA41EC180B7FE700BFAFF30080BB
:108190000000000000000000000000000000F03FB0
:1081A000000000000000F07F000000000000F0FF71
:1081B000ACE20320000000002DE9F04F57EC116BFA
:1081C0002DED0C8B27F0004A5AEA060287B03DD00D
:1081D00055EC104B724925F00048884510EE102AE6
:1081E000A9462CDC11EE103ABB4636D08A4526DC77
:1081F0006B498A4521D0B9F1000F39DB002100918C
:10820000002B51D1664B9A4500F0A280654B9A45F0
:1082100000F0B080BBF1804F00F0C084624B9B4502
:1082200042D1B9F1000F3FDB45EC104B07B0BDEC7C
:108230000C8BBDE8F04F00F059BD002BDBD008F1EE
:10824000404808F5801858EA020309D19FED500B09
:1082500007B0BDEC0C8BBDE8F08F0CB9C245C7DD93
:10826000524807B0BDEC0C8BBDE8F04F00F020BECB
:108270004F498A4500F38580A1F154718A450FDD8D
:108280004FEA2A51A1F2FF31142940F39B84C1F136
:10829000340123FA01F000FA01F1994200F0ED8473
:1082A00000210091002BB1D045EC104B029200F060
:1082B000E9FD029A5ABBB8F1000F04D0394B29F0FE
:1082C00040429A4223D1BBF1000F07DA53EC102B46
:1082D0003449002001F008FA41EC100BB9F1000F0D
:1082E000B6DA009B08F1404808F5801858EA030305
:1082F00040F08D8453EC102B1046194600F012FF0D
:1083000002460B4601F0F0F941EC100BA0E7009A91
:108310004FEAD973013B0493134335D0254B9A455B
:108320004CDD03F104739A45234B40F3DB839845FE
:1083300040F36083BBF1000F40F3608316A3D3E9E1
:1083400000231046194601F0A5F841EC100B7FE719
:1083500008F1404303F5801313433FF477AF164B06
:10836000984540F37A83BBF1000FC0F2478347EC96
:10837000106B6DE7BBF1000FC0F21A8445EC104B97
:1083800066E7022100913BE722462B46B4E700BF97
:10839000000000000000F03F9C7500883CE4377E40
:1083A0000000F07F0000F03F0000E03FC0CE0B0077
:1083B000FFFF3F430000E041FFFFEF3FE44B09EACE
:1083C0000303002253B951EC100BE24B01F062F8A9
:1083D00041EC100B10EE908A6FF034024FEA2853F4
:1083E000A3F2FF339A18DC4B0592C8F3130848F048
:1083F0007F54984544F4401407DDD84B984540F32A
:10840000148401320592A4F580149FEDB96B9FEDA1
:10841000BA7B53EC162BB0EE47CAF0EE67CA0025C4
:10842000B0EE47DAF0EE67DA5BEC10ABA3465046ED
:10843000594643EC1A2B00F075FE53EC1A2B80467C
:1084400089465046594600F06FFE02460B46002012
:10845000C34901F049F941EC1B0B404653EC1B2B7F
:10846000494601F017F841EC180B0A460146CDE9E0
:1084700002120021029164104BEC19AB44F000543D
:10848000DDE902AB04F500230020591904460D462E
:1084900002460B465046594600F0FCFF02460B468A
:1084A0004046494600F03EFE53EC1A2B8046894672
:1084B0002046294600F036FE02460B4651EC190BC9
:1084C00000F030FE52465B4600F0E4FF02460B46E9
:1084D0004046494600F026FE53EC1B2B00F0DAFF25
:1084E00053EC182B41EC190B51EC180B00F0D2FF98
:1084F00083A3D3E9002304460D4600F0CBFF82A3FB
:10850000D3E9002300F010FE22462B4600F0C2FF04
:108510007FA3D3E9002300F007FE22462B4600F09C
:10852000B9FF7DA3D3E9002300F0FEFD22462B46D0
:1085300000F0B0FF7AA3D3E9002300F0F5FD224656
:108540002B4600F0A7FF78A3D3E9002300F0ECFD51
:108550002246804689462B462046294600F09AFF4F
:1085600002460B464046494600F094FF52460446F8
:108570000D465B4651EC180B00F0D6FD53EC192B61
:1085800000F088FF22462B4600F0CEFD5246804682
:1085900089465B465046594600F07CFF02460B4632
:1085A00043EC1A2B6F4B002200F0BEFD42464B46B7
:1085B00000F0BAFD00240D4622462B46504659468F
:1085C00000F068FF674B82468B4600222046294612
:1085D00000F0A8FD53EC1A2B00F0A4FD02460B4658
:1085E0004046494600F09EFD53EC182B00F052FF28
:1085F00022462B4604460D4651EC190B00F04AFF6B
:1086000002460B462046294600F08EFD80468946EC
:1086100042464B465046594600F086FD44A3D3E9F6
:108620000023002004460D4600F034FF524641EC82
:10863000190B5B462046294600F074FD02460B46A6
:108640004046494600F06EFD3BA3D3E9002300F00D
:1086500021FF02460B462046294614461D4638A3F4
:10866000D3E9002300F016FF02460B4620462946B8
:1086700000F05AFD53EC1D2B00F056FD8046059886
:10868000894600F09DFE424682468B464B4651ECA1
:10869000190B00F049FD53EC1C2B00F045FD524630
:1086A0005B4600F041FD52465B46002004460D4605
:1086B00000F038FD53EC1C2B00F034FD53EC192B6B
:1086C00000F030FD02460B464046494600F02AFDC8
:1086D000009B049A013B134382468B4640F0B681CF
:1086E0009FED197BB0EE478AF0EE678A3CE000BF51
:1086F000000000000000F03F00000000000000004B
:10870000EF4E454A287ECA3F65DBC9934A86CD3F76
:1087100001411DA96074D13F4D268F515555D53F5C
:10872000FFAB6FDBB66DDB3F033333333333E33FF4
:10873000000000E009C7EE3FFD033ADC09C7EE3F49
:10874000F5015B14E02F3EBE000000000000F0BF0A
:108750000000F07F000040438E98030079B60B00C4
:108760000000F03F000008400023CDE900670093BF
:10877000DDE90089304642464B46394600F0D2FCDE
:1087800022462B4600F086FE32463B4606460F4602
:108790005046594600F07EFE02460B4630463946AA
:1087A00000F0C2FC42464B4606460F46204629468C
:1087B00000F070FE04460D462B46304639462246F0
:1087C00000F0B2FCC24B9942804689468A4640F38B
:1087D000188101F13F4303F5E003034340F00782B2
:1087E000A3A3D3E900233046394600F09DFC02469E
:1087F0000B46404649469046994622462B4600F095
:1088000091FC02460B464046494601F0D3F8002849
:1088100040F0ED81CAF30A534FF48012A3F2FE3305
:1088200042FA03F35344AB49C3F30A52A2F2FF32B4
:1088300041FA02FCC3F3130141F48011C2F11402A6
:1088400041FA02F2002023EA0C01BAF1000F009273
:108850000B46024602DA0099494200912046294619
:1088600000F060FC009B1B05029302460B46044689
:108870000D463046394600F057FC89464FF0000857
:108880007DA3D3E900234046494600F003FE22467B
:108890002B4682468B464046494600F043FC024642
:1088A0000B463046394600F03DFC75A3D3E9002362
:1088B00000F0F0FD74A3D3E9002304460D464046C2
:1088C000494600F0E7FD02460B462046294600F0E7
:1088D0002BFC06460F4632463B465046594600F0B2
:1088E00023FC52465B4604460D4600F01BFC024644
:1088F0000B463046394600F015FC22468046894634
:108900002B462046294600F0C5FD61A3D3E900238C
:1089100006460F4600F0BEFD5FA3D3E9002300F03A
:1089200001FC32463B4600F0B5FD5DA3D3E90023D0
:1089300000F0FAFB32463B4600F0ACFD5AA3D3E907
:10894000002300F0EFFB32463B4600F0A3FD58A3A6
:10895000D3E9002300F0E8FB32463B4600F09AFDE5
:1089600002460B462046294600F0DCFB06460F4631
:1089700032463B462046294600F08CFD02460B4617
:108980003046394616461F4600224FF0804300F01D
:10899000C9FB02460B463046394600F0A5FE42466A
:1089A00006460F464B462046294600F073FD4246D8
:1089B0004B4600F0B9FB02460B463046394600F004
:1089C000B1FB22462B4600F0ADFB02460B460020D1
:1089D000414900F0A7FB029A0B461344B3F5801FF0
:1089E000C0F24381194653EC182B00F053FD41ECC3
:1089F000100B2DE4BBF1000FFFF6A0AC9FED2E0B8A
:108A000026E4DFF8DCC021F00043634540F3E78053
:108A1000324B0B4403430AD122462B4600F082FB23
:108A200032463B4600F0BCFF00283FF4F3AE24A3DF
:108A3000D3E9002351EC180B00F02CFD20A3D3E95F
:108A4000002300F027FD41EC100B01E49FED1E7B9D
:108A5000B0EE478AF0EE678A86E6BBF1000FCDDA0A
:108A600007F1004300EE106A00EE903AFFF7F0BB0A
:108A7000FE822B654715973C00000000432EE63F21
:108A8000EF39FAFE422EE63F396CA80C615C20BE3D
:108A9000D0A4BE726937663EF16BD2C541BDBB3E04
:108AA0002CDE25AF6A56113F93BDBE166CC1663FE2
:108AB0003E5555555555C53F0000000000000000CB
:108AC00059F3F8C21F6EA501000000000000F03F3E
:108AD000FFFF8F40FFFF0F000000F03F00346F3FAB
:108AE000FFCB9040984585DB7D4B98453FF722AC06
:108AF00051EC100B7A4B002200F014FB68A3D3E971
:108B0000002304460D4600F0C5FC67A3D3E900230B
:108B100082468B462046294600F0BCFC714B41EC56
:108B2000180B00222046294600F0B4FC02460B46F2
:108B30005FA1D1E9000100F0F5FA22462B4600F0D2
:108B4000A9FC02460B460020674900F0EBFA2246DA
:108B5000804689462B462046294600F09BFC02466B
:108B60000B464046494600F095FC53A3D3E9002349
:108B700000F090FC02460B4651EC180B00F0D2FAC4
:108B80008046894642464B465046594600F0CCFA4C
:108B9000002052465B4604460D4691E522462B4690
:108BA0002046294600F076FC41EC100BFFF750BB45
:108BB0004B49002022462B4600F096FD41EC100B5D
:108BC000FFF746BB002B44D1C1F114014AFA01F072
:108BD00000FA01F151455AD00093FFF717BB424A02
:108BE00093425BDCDDE900120291009146E634A37A
:108BF000D3E9002351EC180B00F04CFC30A3D3E96F
:108C0000002300F047FC41EC100BFFF721BB009B59
:108C1000012B7FF41DAB10EE901A10EE102A01F11B
:108C2000004343EC102BFFF713BB9FED277BB0EE07
:108C300047CAF0EE67CA9FED267BB0EE47DAF0EE4A
:108C400067DA9FED257B4FF4802553EC172BFFF758
:108C5000EBBB45EC104B009200F014F9009A002A8F
:108C60007FF492AB0092FFF726BB41EC100B00980B
:108C700000F0C2F951EC100BB5E600F00100C0F1B4
:108C800002010091002B3FF4C1AAFFF70DBB00F0D9
:108C90000100C0F102030093FFF7B8BA1B15BBE552
:108CA000000000604715F73F44DF5DF80BAE543E0F
:108CB000555555555555D53FFE822B654715F73F00
:108CC0009C7500883CE4377E0000004003B8E23F1A
:108CD00006D0CF43EBFD4C3E000000000000F83F03
:108CE0000000F03F0000D03F0000E03F2DE9F041E0
:108CF000634A55EC104BAA4300F09F80002D10EE04
:108D000010CA2B4654DD291563D0C3F31303A1F217
:108D1000FF37C90743F4801304D45B0003EBDC7313
:108D20004FEA4C0C4FEADC72002602EB43037F1043
:108D30004FEA4C0C4FF0160E34464FF40012A118B7
:108D4000994202DC5B1A8C1816445B00BEF1010EDE
:108D500003EBDC734FEA52024FEA4C0CEFD175463D
:108D600020204FF000420AE044D04FEADC71013885
:108D700001EB43034FEA4C0C4FEA520243D0A342AB
:108D800002EB0E01F0DD002901EB020E0ADBA0462A
:108D90001B1B614588BF03F1FF33ACEB010C15448D
:108DA0004446E2E7BEF1000FF1DB04F10108EFE712
:108DB00025F00042224338D0002D4ED129464FEAFB
:108DC000DC22153913464FEA4C5C002AF7D0D60254
:108DD00050D400205B00DD02044600F10100F9D50B
:108DE0001A4663460CFA00FCC0F12000C340091B80
:108DF00013438AE76145B8D8002901EB020ED1DBA5
:108E000098460023C9E753EA0C0310D16808711093
:108E1000F30701F17F5101F5001148BF40F0004018
:108E200001EB0753024643EC102BBDE8F0816A1CAE
:108E300016BF681C01364008E9E710EE102A10EE54
:108E4000100A2B46294600F025FB22462B4600F04F
:108E50006BF941EC100BBDE8F08110EE102A2046B2
:108E6000294600F05FF902460B4600F03DFC41EC5C
:108E7000100BDAE7634620204FF0FF34B6E700BF5F
:108E80000000F07F51EC100B10EE102A21F000438F
:108E900043EC102B704700BF82B08DED000B0198A2
:108EA00040F0004000F58010C00F02B0704700BFD6
:108EB0009FED010B704700BF000000000000F87F2D
:108EC000F0B553EC102BC3F30A5CACF2FF3113295D
:108ED00010EE100A83B01C464FEAD37E3ADC00291C
:108EE00030DB424D45FA01FC03EA0C0515432DD059
:108EF00003EA5C0318434FEA5C0C0CD024EA0C0C28
:108F00004FF48024132944FA01F10CBF4FF00040C4
:108F100000204CEA0104364901EBCE0E2346DEE97F
:108F2000004502462946204600F0FEF8CDE9000142
:108F3000DDE9000122462B4600F0F4F841EC100B6D
:108F400003B0F0BD23F00041114324D143EC102BBA
:108F500003B0F0BD332908DDB1F5806FF6D11946B5
:108F600000F0E2F841EC100BF2E7ACF2134C4FF0DA
:108F7000FF3121FA0CF10A42E8D010EA51024FEA1F
:108F80005103C8D020EA03034FF0804040FA0CFCA4
:108F900043EA0C00BFE7C3F313031843144A4342E8
:108FA000034302EBCE0E1B0B620C03F400235204AE
:108FB00043EA02073B46DEE9006710EE102A30461E
:108FC000394600F0B1F8CDE9000132463B46DDE913
:108FD000000100F0A7F804F0004421F0004102462F
:108FE00041EA040343EC102B03B0F0BDFFFF0F0078
:108FF000C8CE0B000000000038B553EC102BC3F3B3
:109000000A5104469C4689BB10EE101A23F0004C0E
:109010005CEA010129D0194600223D4B3D4D10EE7E
:10902000100A00F037FAAC4202460B4616DB8C46BB
:10903000C1F30A513639214440F2FE70814221DCED
:10904000002947DC11F1350F34DA4CF250318C42F3
:1090500018DC002B26A1D1E9000144DB24A3D3E9CD
:10906000002300F017FA41EC100B38BD40F2FF70FE
:109070008142E0D110EE100A194600F055F841EC9B
:10908000100B38BD002B1CA1D1E9000107DB1AA38E
:10909000D3E9002300F0FEF941EC100B38BD18A114
:1090A000D1E9000114A3D3E9002300F0F3F941EC66
:1090B000100BF3E72CF0FF4C2CF4E00C36314CEAAB
:1090C0000153104619460022134B00F0E3F941EC1E
:1090D000100B38BD2CF0FF4C2CF4E00C4CEA015383
:1090E00043EC102B38BD08A1D1E90001B6E700BF61
:1090F00059F3F8C21F6EA5019C7500883CE4377EC9
:109100009C7500883CE437FE59F3F8C21F6EA581B8
:1091100000005043B03CFFFF0000903C81F0004154
:1091200002E000BF83F0004330B54FEA41044FEA4C
:10913000430594EA050F08BF90EA020F1FBF54EAE7
:10914000000C55EA020C7FEA645C7FEA655C00F083
:10915000E2804FEA5454D4EB5555B8BF6D420CDD54
:109160002C4480EA020281EA030382EA000083EAD7
:10917000010180EA020281EA0303362D88BF30BD77
:1091800011F0004F4FEA01314FF4801C4CEA1131CD
:1091900002D0404261EB410113F0004F4FEA03332C
:1091A0004CEA133302D0524263EB430394EA050FB7
:1091B00000F0A780A4F10104D5F1200E0DDB02FA26
:1091C0000EFC22FA05F2801841F1000103FA0EF2BA
:1091D000801843FA05F359410EE0A5F120050EF180
:1091E000200E012A03FA0EFC28BF4CF0020C43FAB1
:1091F00005F3C01851EBE37101F0004507D54FF0BE
:10920000000EDCF1000C7EEB00006EEB0101B1F50D
:10921000801F1BD3B1F5001F0CD349085FEA300053
:109220004FEA3C0C04F101044FEA445212F5800F5E
:1092300080F09A80BCF1004F08BF5FEA500C50F1FB
:10924000000041EB045141EA050130BD5FEA4C0CDE
:10925000404141EB0101013C28BFB1F5801FE9D23B
:1092600091F0000F04BF01460020B1FA81F308BF5E
:109270002033A3F10B03B3F120020CDA0C3208DD2A
:1092800002F1140CC2F10C0201FA0CF021FA02F105
:109290000CE002F11402D8BFC2F1200C01FA02F175
:1092A00020FA0CFCDCBF41EA0C019040E41AA2BF9A
:1092B00001EB0451294330BD6FEA04041F3C1CDA62
:1092C0000C340EDC04F11404C4F1200220FA04F082
:1092D00001FA02F340EA030021FA04F345EA03012C
:1092E00030BDC4F10C04C4F1200220FA02F001FAEE
:1092F00004F340EA0300294630BD21FA04F0294670
:1093000030BD94F0000F83F4801306BF81F4801108
:109310000134013D4EE77FEA645C18BF7FEA655C7B
:1093200029D094EA050F08BF90EA020F05D054EA4D
:10933000000C04BF1946104630BD91EA030F1EBF52
:109340000021002030BD5FEA545C05D14000494156
:1093500028BF41F0004130BD14F580043CBF01F549
:10936000801130BD01F0004545F0FE4141F470012F
:109370004FF0000030BD7FEA645C1ABF194610460A
:109380007FEA655C1CBF0B46024650EA013406BF0B
:1093900052EA033591EA030F41F4002130BD00BFCA
:1093A00090F0000F04BF0021704730B54FF4806487
:1093B00004F132044FF000054FF0000150E700BF08
:1093C00090F0000F04BF0021704730B54FF4806467
:1093D00004F1320410F0004548BF40424FF0000154
:1093E0003EE700BF42004FEAE2014FEA31014FEA97
:1093F00002701FBF12F07F4393F07F4F81F06051E6
:10940000704732F07F4208BF704793F07F4F04BF30
:1094100041F40021704730B54FF4607401F000450D
:1094200021F000411CE700BF50EA010208BF70476D
:1094300030B54FF000050AE050EA010208BF70475E
:1094400030B511F0004502D5404261EB41014FF4C7
:10945000806404F132045FEA915C3FF4D8AE4FF0CF
:1094600003025FEADC0C18BF03325FEADC0C18BFB2
:10947000033202EBDC02C2F1200300FA03FC20FA03
:1094800002F001FA03FE40EA0E0021FA02F1144450
:10949000BDE600BF70B54FF0FF0C4CF4E06C1CEA69
:1094A00011541DBF1CEA135594EA0C0F95EA0C0FDA
:1094B00000F0DEF82C4481EA030621EA4C5123EA4D
:1094C0004C5350EA013518BF52EA033541F480117C
:1094D00043F4801338D0A0FB02CE4FF00005E1FB2F
:1094E00002E506F00042E0FB03E54FF00006E1FB79
:1094F00003569CF0000F18BF4EF0010EA4F1FF04BC
:10950000B6F5007F64F5407404D25FEA4E0E6D41FB
:1095100046EB060642EAC62141EA55514FEAC5200C
:1095200040EA5E504FEACE2EB4F1FD0C88BFBCF588
:10953000E06F1ED8BEF1004F08BF5FEA500E50F139
:10954000000041EB045170BD06F0004646EA0101FF
:1095500040EA020081EA0301B4EB5C04C2BFD4EB31
:109560000C0541EA045170BD41F480114FF0000E2A
:10957000013C00F3AB8014F1360FDEBF002001F098
:10958000004170BDC4F10004203C35DA0C341BDC12
:1095900004F11404C4F1200500FA05F320FA04F0E4
:1095A00001FA05F240EA020001F0004221F0004118
:1095B00010EBD37021FA04F642EB06015EEA430E8B
:1095C00008BF20EAD37070BDC4F10C04C4F12005BB
:1095D00000FA04F320FA05F001FA04F240EA02006E
:1095E00001F0004110EBD37041F100015EEA430E3F
:1095F00008BF20EAD37070BDC4F1200500FA05F25F
:109600004EEA020E20FA04F301FA05F243EA0203DD
:1096100021FA04F001F0004121FA04F220EA0200EC
:1096200000EBD3705EEA430E08BF20EAD37070BD32
:1096300094F0000F0FD101F00046400041EB010112
:1096400011F4801F08BF013CF7D041EA060195F0F4
:10965000000F18BF704703F00046520043EB0303AE
:1096600013F4801F08BF013DF7D043EA060370479B
:1096700094EA0C0F0CEA135518BF95EA0C0F0CD0A6
:1096800050EA410618BF52EA4306D1D181EA0301EC
:1096900001F000414FF0000070BD50EA410606BFE6
:1096A0001046194652EA430619D094EA0C0F02D12B
:1096B00050EA013613D195EA0C0F05D152EA033670
:1096C0001CBF104619460AD181EA030101F000418E
:1096D00041F0FE4141F470014FF0000070BD41F0D7
:1096E000FE4141F4780170BD70B54FF0FF0C4CF4B1
:1096F000E06C1CEA11541DBF1CEA135594EA0C0FD0
:1097000095EA0C0F00F0A7F8A4EB050481EA030E1C
:1097100052EA03354FEA013100F088804FEA033303
:109720004FF0805545EA131343EA12634FEA0222D1
:1097300045EA111545EA10654FEA00260EF0004192
:109740009D4208BF964244F1FD0404F5407402D2E4
:109750005B084FEA3202B61A65EB03055B084FEA75
:1097600032024FF480104FF4002CB6EB020E75EB72
:10977000030E22BFB61A754640EA0C005B084FEA9A
:109780003202B6EB020E75EB030E22BFB61A754617
:1097900040EA5C005B084FEA3202B6EB020E75EB62
:1097A000030E22BFB61A754640EA9C005B084FEADA
:1097B0003202B6EB020E75EB030E22BFB61A7546E7
:1097C00040EADC0055EA060E18D04FEA051545EAD6
:1097D00016754FEA06164FEAC30343EA52734FEA7F
:1097E000C2025FEA1C1CC0D111F4801F0BD141EAF8
:1097F00000014FF000004FF0004CB6E711F4801F5D
:1098000004BF01430020B4F1FD0C88BFBCF5E06F3C
:109810003FF6AFAEB5EB030C04BFB6EB020C5FEA4C
:10982000500C50F1000041EB045170BD0EF0004EA1
:109830004EEA113114EB5C04C2BFD4EB0C0541EAD3
:10984000045170BD41F480114FF0000E013C90E6D0
:1098500045EA060E8DE60CEA135594EA0C0F08BF94
:1098600095EA0C0F3FF43BAF94EA0C0F0AD150EA93
:1098700001347FF434AF95EA0C0F7FF425AF104626
:1098800019462CE795EA0C0F06D152EA03353FF44E
:10989000FDAE1046194622E750EA410618BF52EACB
:1098A00043067FF4C5AE50EA41047FF40DAF52EA9F
:1098B00043057FF4EBAE12E74FF0FF3C06E000BF3C
:1098C0004FF0010C02E000BF4FF0010C4DF804CD49
:1098D0004FEA410C7FEA6C5C4FEA430C18BF7FEA09
:1098E0006C5C1BD001B050EA410C0CBF52EA430C37
:1098F00091EA030F02BF90EA020F0020704710F1B7
:10990000000F91EA030F58BF994208BF90422CBF45
:10991000D8176FEAE37040F0010070474FEA410C3E
:109920007FEA6C5C02D150EA013C07D14FEA430C5C
:109930007FEA6C5CD6D152EA033CD3D05DF8040BCD
:10994000704700BF8446104662468C4619466346FF
:1099500000E000BF01B5FFF7B7FF002848BF10F1D6
:10996000000F01BD4DF808EDFFF7F4FF0CBF01201B
:1099700000205DF808FB00BF4DF808EDFFF7EAFF97
:1099800034BF012000205DF808FB00BF4DF808ED52
:10999000FFF7E0FF94BF012000205DF808FB00BF47
:1099A0004DF808EDFFF7CEFF94BF012000205DF8D1
:1099B00008FB00BF4DF808EDFFF7C4FF34BF0120DE
:1099C00000205DF808FB00BF4FEA410C7FEA6C5CA9
:1099D00002D150EA013C0AD14FEA430C7FEA6C5CA9
:1099E00002D152EA033C02D14FF0000070474FF021
:1099F000010070474FEA410212F5001215D211D54D
:109A00006FF47873B3EB625212D94FEAC12343F07B
:109A1000004343EA505311F0004F23FA02F018BFFD
:109A2000404270474FF00000704750EA013005D1C6
:109A300011F0004008BF6FF0004070474FF0000089
:109A4000704700BF4A0011D212F5001211D20DD595
:109A50006FF47873B3EB62520ED44FEAC12343F034
:109A6000004343EA505323FA02F070474FF00000DE
:109A7000704750EA013002D14FF0FF3070474FF08D
:109A8000000070474FEA4102B2F1E04324BFB3F552
:109A9000001CDCF1FE5C0DD901F0004C4FEAC00265
:109AA0004CEA5070B2F1004F40EB830008BF20F049
:109AB0000100704711F0804F21D113F13872BCBF03
:109AC00001F00040704741F480114FEA5252C2F158
:109AD0001802C2F1200C10FA0CF320FA02F018BFA1
